:100000006C2800000000000009001108820760341D
:100010003134323433346134343435343634623448
:1000200037343834393463342A3430342334643444
:100030001530840089018316081483120808800093
:10004000840A890A19300402031D1B280800153090
:1000500084008901000888008316081208155530AD
:100060008900AA30890088148312000000008316DA
:10007000081E34288312840A890A19300402031DD9
:100080002A2808008D0050308E008E0B45288D0BDD
:100090004328080090008615033042208611033063
:1000A0004220900B4B280800910104309200FE3052
:1000B0006500A0304220060E940004309300910A9F
:1000C000940C031C0528930B5F2803148316850DDD
:1000D0008312920B592800348501030165008601C3
:1000E000F0306600831681138312F0304A20182006
:1000F000860197201530D620031D78282A3011025A
:1001000003198B280430860096308F00C8304220B7
:100110008F0B862878280230860097201530EA2039
:1001200097201530D620031D75282720782899019F
:10013000030165000608F039F03A031D9828F030F5
:100140004220060808308B0063005420FF399100DC
:1001500003199828F030422004301902031DC328E7
:10016000CF20031DB72840304A20110808001B305B
:100170008400000884038000840A840A1E3004027C
:10018000031DB9289903CF200319972840304A202E
:100190001A301907840011088000990A9828233022
:1001A0001102031908002A30110208009E0099016B
:1001B0001A301907840000089F001E0819078400E0
:1001C00000081F02031D0800990A04301902031DCC
:1001D000D82808009E0099011A30190784000008E9
:1001E0009F001E08190784001F088000990A043028
:0801F0001902031DEC280800B0
:02400E00F23F7F
:0C4200003100320033003400350036007D
:00000001FF
